{
  "_format": "hh-sol-artifact-1",
  "contractName": "RiseandFame",
  "sourceName": "contracts/RiseandFame.sol",
  "abi": [
    {
      "inputs": [],
      "stateMutability": "nonpayable",
      "type": "constructor"
    },
    {
      "anonymous": false,
      "inputs": [
        {
          "indexed": true,
          "internalType": "uint256",
          "name": "itemId",
          "type": "uint256"
        },
        {
          "indexed": true,
          "internalType": "address",
          "name": "nftContract",
          "type": "address"
        },
        {
          "indexed": true,
          "internalType": "uint256",
          "name": "tokenId",
          "type": "uint256"
        },
        {
          "indexed": false,
          "internalType": "address",
          "name": "seller",
          "type": "address"
        },
        {
          "indexed": false,
          "internalType": "address",
          "name": "owner",
          "type": "address"
        },
        {
          "indexed": false,
          "internalType": "uint256",
          "name": "price",
          "type": "uint256"
        },
        {
          "indexed": false,
          "internalType": "bool",
          "name": "sold",
          "type": "bool"
        },
        {
          "indexed": false,
          "internalType": "bool",
          "name": "cancelled",
          "type": "bool"
        }
      ],
      "name": "MarketTokenMinted",
      "type": "event"
    },
    {
      "inputs": [
        {
          "internalType": "uint256",
          "name": "tokenId",
          "type": "uint256"
        }
      ],
      "name": "cancelMarketItem",
      "outputs": [],
      "stateMutability": "payable",
      "type": "function"
    },
    {
      "inputs": [
        {
          "internalType": "address",
          "name": "nftContract",
          "type": "address"
        },
        {
          "internalType": "uint256",
          "name": "itemId",
          "type": "uint256"
        }
      ],
      "name": "createMarketSale",
      "outputs": [],
      "stateMutability": "payable",
      "type": "function"
    },
    {
      "inputs": [],
      "name": "fetchItemsCreated",
      "outputs": [
        {
          "components": [
            {
              "internalType": "uint256",
              "name": "itemId",
              "type": "uint256"
            },
            {
              "internalType": "address",
              "name": "nftContract",
              "type": "address"
            },
            {
              "internalType": "uint256",
              "name": "tokenId",
              "type": "uint256"
            },
            {
              "internalType": "address payable",
              "name": "seller",
              "type": "address"
            },
            {
              "internalType": "address payable",
              "name": "owner",
              "type": "address"
            },
            {
              "internalType": "uint256",
              "name": "price",
              "type": "uint256"
            },
            {
              "internalType": "bool",
              "name": "sold",
              "type": "bool"
            },
            {
              "internalType": "bool",
              "name": "cancelled",
              "type": "bool"
            }
          ],
          "internalType": "struct RiseandFame.MarketToken[]",
          "name": "",
          "type": "tuple[]"
        }
      ],
      "stateMutability": "view",
      "type": "function"
    },
    {
      "inputs": [],
      "name": "fetchMarketTokens",
      "outputs": [
        {
          "components": [
            {
              "internalType": "uint256",
              "name": "itemId",
              "type": "uint256"
            },
            {
              "internalType": "address",
              "name": "nftContract",
              "type": "address"
            },
            {
              "internalType": "uint256",
              "name": "tokenId",
              "type": "uint256"
            },
            {
              "internalType": "address payable",
              "name": "seller",
              "type": "address"
            },
            {
              "internalType": "address payable",
              "name": "owner",
              "type": "address"
            },
            {
              "internalType": "uint256",
              "name": "price",
              "type": "uint256"
            },
            {
              "internalType": "bool",
              "name": "sold",
              "type": "bool"
            },
            {
              "internalType": "bool",
              "name": "cancelled",
              "type": "bool"
            }
          ],
          "internalType": "struct RiseandFame.MarketToken[]",
          "name": "",
          "type": "tuple[]"
        }
      ],
      "stateMutability": "view",
      "type": "function"
    },
    {
      "inputs": [],
      "name": "fetchMyNFTs",
      "outputs": [
        {
          "components": [
            {
              "internalType": "uint256",
              "name": "itemId",
              "type": "uint256"
            },
            {
              "internalType": "address",
              "name": "nftContract",
              "type": "address"
            },
            {
              "internalType": "uint256",
              "name": "tokenId",
              "type": "uint256"
            },
            {
              "internalType": "address payable",
              "name": "seller",
              "type": "address"
            },
            {
              "internalType": "address payable",
              "name": "owner",
              "type": "address"
            },
            {
              "internalType": "uint256",
              "name": "price",
              "type": "uint256"
            },
            {
              "internalType": "bool",
              "name": "sold",
              "type": "bool"
            },
            {
              "internalType": "bool",
              "name": "cancelled",
              "type": "bool"
            }
          ],
          "internalType": "struct RiseandFame.MarketToken[]",
          "name": "",
          "type": "tuple[]"
        }
      ],
      "stateMutability": "view",
      "type": "function"
    },
    {
      "inputs": [
        {
          "internalType": "address",
          "name": "nftContract",
          "type": "address"
        },
        {
          "internalType": "uint256",
          "name": "tokenId",
          "type": "uint256"
        },
        {
          "internalType": "uint256",
          "name": "price",
          "type": "uint256"
        }
      ],
      "name": "makeMarketItem",
      "outputs": [],
      "stateMutability": "payable",
      "type": "function"
    },
    {
      "inputs": [
        {
          "internalType": "uint256",
          "name": "tokenId",
          "type": "uint256"
        },
        {
          "internalType": "uint256",
          "name": "newprice",
          "type": "uint256"
        }
      ],
      "name": "updateMarketItemPrice",
      "outputs": [],
      "stateMutability": "payable",
      "type": "function"
    }
  ],
  "bytecode": "0x608060405234801561001057600080fd5b506001600055600480546001600160a01b03191633179055610f83806100376000396000f3fe6080604052600436106100705760003560e01c8063ae13a3171161004e578063ae13a317146100c8578063c23b139e146100db578063c69bdf75146100ee578063f064c32e1461010357610070565b8063202e3740146100755780637a060f56146100a0578063a6e22b02146100b5575b600080fd5b34801561008157600080fd5b5061008a610118565b6040516100979190610d3a565b60405180910390f35b6100b36100ae366004610c72565b61032d565b005b6100b36100c3366004610ca4565b61051c565b6100b36100d6366004610cbc565b6105bd565b6100b36100e9366004610c49565b61061a565b3480156100fa57600080fd5b5061008a6107cd565b34801561010f57600080fd5b5061008a6109d1565b606060006101266001610bdd565b905060008060005b83811015610189573360056000610146846001610eae565b81526020810191909152604001600020600401546001600160a01b0316141561017757610174600184610eae565b92505b8061018181610f1c565b91505061012e565b5060008267ffffffffffffffff8111156101b357634e487b7160e01b600052604160045260246000fd5b6040519080825280602002602001820160405280156101ec57816020015b6101d9610bee565b8152602001906001900390816101d15790505b50905060005b8481101561032457336005600061020a846001610eae565b81526020810191909152604001600020600401546001600160a01b0316141561031257600060058161023d846001610eae565b81526020808201929092526040908101600090812054808252600580855291839020835161010080820186528254825260018301546001600160a01b0390811697830197909752600283015495820195909552600382015486166060820152600482015490951660808601529182015460a0850152600682015460ff808216151560c0870152939004909216151560e0840152855191935091908590879081106102f757634e487b7160e01b600052603260045260246000fd5b602090810291909101015261030d600186610eae565b945050505b8061031c81610f1c565b9150506101f2565b50935050505090565b600260005414156103595760405162461bcd60e51b815260040161035090610e77565b60405180910390fd5b60026000558061037b5760405162461bcd60e51b815260040161035090610ded565b6103856001610be5565b60006103916001610bdd565b6040805161010080820183528382526001600160a01b0388811660208085018281528587018b81523360608801818152600060808a0181815260a08b018f815260c08c0183815260e08d018481528f85526005998a9052938e90209c518d55965160018d0180546001600160a01b0319908116928d16929092179055955160028d0155925160038c0180548716918b16919091179055516004808c01805490961691909916179093555193880193909355905160069096018054915160ff199092169615159690961761ff0019169015159094029390931790935592516323b872dd60e01b815293945090926323b872dd9261049292913091899101610ce3565b600060405180830381600087803b1580156104ac57600080fd5b505af11580156104c0573d6000803e3d6000fd5b5050505082846001600160a01b0316827fca56974d303c36c15aa5ad02542c2993a0146828d30160759842bf2d8ba2750033600087600080604051610509959493929190610d07565b60405180910390a4505060016000555050565b6002600054141561053f5760405162461bcd60e51b815260040161035090610e77565b6002600081815582815260056020819052604082206006810180548483556001830180546001600160a01b03199081169091559583018590556003808401805488169055600484018054909716909655919092019290925561ffff1961ff0019909216610100179190911690556105b590610be5565b506001600055565b600260005414156105e05760405162461bcd60e51b815260040161035090610e77565b6002600055806106025760405162461bcd60e51b815260040161035090610ded565b60009182526005602081905260408320015560019055565b6002600054141561063d5760405162461bcd60e51b815260040161035090610e77565b60026000818155828152600560208190526040909120908101549101543482146106795760405162461bcd60e51b815260040161035090610e24565b6004546001600160a01b03166108fc600a610695346003610ee6565b61069f9190610ec6565b6040518115909202916000818181858888f193505050501580156106c7573d6000803e3d6000fd5b506000838152600560205260409020600301546001600160a01b03166108fc600a6106f3346007610ee6565b6106fd9190610ec6565b6040518115909202916000818181858888f19350505050158015610725573d6000803e3d6000fd5b506040516323b872dd60e01b81526001600160a01b038516906323b872dd9061075690309033908690600401610ce3565b600060405180830381600087803b15801561077057600080fd5b505af1158015610784573d6000803e3d6000fd5b50505060008481526005602052604090206004810180546001600160a01b03191633179055600601805460ff19166001179055506107c26002610be5565b505060016000555050565b606060006107db6001610bdd565b905060006107e96003610bdd565b6107f36002610bdd565b6107fd6001610bdd565b6108079190610f05565b6108119190610f05565b90506000808267ffffffffffffffff81111561083d57634e487b7160e01b600052604160045260246000fd5b60405190808252806020026020018201604052801561087657816020015b610863610bee565b81526020019060019003908161085b5790505b50905060005b84811015610324576000600581610894846001610eae565b81526020810191909152604001600020600401546001600160a01b03161480156108e9575060006005816108c9846001610eae565b81526020810191909152604001600020600301546001600160a01b031614155b156109bf5760006108fb826001610eae565b600081815260056020818152604092839020835161010080820186528254825260018301546001600160a01b0390811694830194909452600283015495820195909552600382015483166060820152600482015490921660808301529182015460a0820152600682015460ff808216151560c0840152939004909216151560e08301528551929350918590879081106109a457634e487b7160e01b600052603260045260246000fd5b60209081029190910101526109ba600186610eae565b945050505b806109c981610f1c565b91505061087c565b606060006109df6001610bdd565b905060008060005b83811015610a425733600560006109ff846001610eae565b81526020810191909152604001600020600301546001600160a01b03161415610a3057610a2d600184610eae565b92505b80610a3a81610f1c565b9150506109e7565b5060008267ffffffffffffffff811115610a6c57634e487b7160e01b600052604160045260246000fd5b604051908082528060200260200182016040528015610aa557816020015b610a92610bee565b815260200190600190039081610a8a5790505b50905060005b84811015610324573360056000610ac3846001610eae565b81526020810191909152604001600020600301546001600160a01b03161415610bcb576000600581610af6846001610eae565b81526020808201929092526040908101600090812054808252600580855291839020835161010080820186528254825260018301546001600160a01b0390811697830197909752600283015495820195909552600382015486166060820152600482015490951660808601529182015460a0850152600682015460ff808216151560c0870152939004909216151560e084015285519193509190859087908110610bb057634e487b7160e01b600052603260045260246000fd5b6020908102919091010152610bc6600186610eae565b945050505b80610bd581610f1c565b915050610aab565b80545b919050565b80546001019055565b6040805161010081018252600080825260208201819052918101829052606081018290526080810182905260a0810182905260c0810182905260e081019190915290565b80356001600160a01b0381168114610be057600080fd5b60008060408385031215610c5b578182fd5b610c6483610c32565b946020939093013593505050565b600080600060608486031215610c86578081fd5b610c8f84610c32565b95602085013595506040909401359392505050565b600060208284031215610cb5578081fd5b5035919050565b60008060408385031215610cce578182fd5b50508035926020909101359150565b15159052565b6001600160a01b039384168152919092166020820152604081019190915260600190565b6001600160a01b039586168152939094166020840152604083019190915215156060820152901515608082015260a00190565b602080825282518282018190526000919060409081850190868401855b82811015610de057815180518552868101516001600160a01b039081168887015286820151878701526060808301518216908701526080808301519091169086015260a0808201519086015260c080820151610db582880182610cdd565b505060e09081015190610dca86820183610cdd565b5050610100939093019290850190600101610d57565b5091979650505050505050565b6020808252601e908201527f5072696365206d757374206265206174206c65617374206f6e65207765690000604082015260600190565b60208082526033908201527f506c65617365207375626d6974207468652061736b696e6720707269636520696040820152726e206f7264657220746f20636f6e74696e756560681b606082015260800190565b6020808252601f908201527f5265656e7472616e637947756172643a207265656e7472616e742063616c6c00604082015260600190565b60008219821115610ec157610ec1610f37565b500190565b600082610ee157634e487b7160e01b81526012600452602481fd5b500490565b6000816000190483118215151615610f0057610f00610f37565b500290565b600082821015610f1757610f17610f37565b500390565b6000600019821415610f3057610f30610f37565b5060010190565b634e487b7160e01b600052601160045260246000fdfea2646970667358221220fc2a59f6ee9d8cbfd439a25c99e5880fe7fc02513dee034949338592a1e7937d64736f6c63430008000033",
  "linkReferences": {},
  "deployedLinkReferences": {}
}